:020000040800F2
:1000000020090020450100080B0900084D040008E4
:10001000070900088D0100087316000800000000A1
:10002000000000000000000000000000D50C0008E7
:100030008D0200080000000091090008C10D0008B1
:100040005F0100085F0100085F0100085F01000810
:100050005F0100085F0100085F0100085F01000800
:100060005F0100085F0100085F0100085F010008F0
:100070005F0100085F0100085F0100085F010008E0
:100080005F0100085F0100085F0100085F010008D0
:100090005F0100085F0100085F010008DD02000841
:1000A0005F0100085F0100085F0100085F010008B0
:1000B000510E00085F0100085F0100085F010008A1
:1000C0005F0100085F0100085F0100085F01000890
:1000D0005F010008991400085F0100085F01000833
:1000E0005F0100085F0100085F0100085F01000870
:1000F0005F0100085F0100085F0100085F01000860
:100100005F0100085F0100085F0100085F0100084F
:100110005F0100085F0100085F0100085F0100083F
:100120005F0100085F0100085F0100085F0100082F
:10013000DFF80CD000F018F80048004795160008CA
:10014000200900200648804706480047FEE7FEE7F2
:10015000FEE7FEE7FEE7FEE7FEE7FEE7FEE7FEE777
:10016000F10D000831010008064C074D06E0E0687B
:1001700040F0010394E8070098471034AC42F6D3EE
:10018000FFF7DAFFC8160008E816000800BFFEE710
:1001900010B586B0044601A800F09CFC022C5DD08E
:1001A000402C2FD0482C5AD100F06EFC4FF48030F8
:1001B00000F02CFD00BF312000F0F6FC0028FAD042
:1001C000002000F017FD4FF4806000F04BFD002090
:1001D00000F054FD4FF4E0114FF4803000F060FD6A
:1001E000012000F057FD00BF392000F0DDFC0028A1
:1001F000FAD0022000F062FD00BF00F0F3FC0828F6
:10020000FBD12CE000F040FC012000F025FD00BFF8
:10021000212000F0C9FC0028FAD0002000F0EAFC00
:100220004FF4806000F01EFD002000F027FD4FF429
:100230004011002000F034FD012000F02BFD00BF34
:10024000392000F0B1FC0028FAD0022000F036FD81
:1002500000BF00F0C7FC0828FBD100E000BF00BFD2
:1002600007490298B0FBF1F0064908704FF4FA51C3
:100270000298B0FBF1F080B20349088006B010BDCF
:1002800000127A003E00002040000020704700006D
:10029000104A128802FB00F1B1F1807F01D36FF0A8
:1002A0007F414FF0E022516101224FF0E0231A61BB
:1002B00000229A610021084A108002E04FF0E022FB
:1002C00011690A0C002AF9D000224FF0E0231A61CC
:1002D0009A617047400000204200002010B50124C0
:1002E000202000F013F838B1202000F009F800F0C9
:1002F0009BF900200149088010BD00003800002053
:1003000001490860704700001404014001460020C4
:100310000022074B1B6803EA0102054B14331B68DC
:100320000B4013B10AB1012000E00020704700002B
:10033000000401402DE9F04102460025002600207E
:1003400000230024002791F803C00CF00F0591F85A
:1003500003C00CF0100CBCF1000F03D091F802C0E8
:100360004CEA050591F800C0BCF1000F31D01468CB
:1003700000202BE04FF0010C0CFA00F3B1F800C0A4
:100380000CEA03069E4220D183004FF00F0C0CFABA
:1003900003F7BC4305FA03FC4CEA040491F803C0DC
:1003A000BCF1280F06D14FF0010C0CFA00FCC2F88A
:1003B00014C00AE091F803C0BCF1480F05D14FF01A
:1003C000010C0CFA00FCC2F810C0401C0828D1D364
:1003D0001460B1F800C0BCF1FF0F34DD5468002098
:1003E0002EE000F1080C4FF0010808FA0CF3B1F808
:1003F00000C00CEA03069E4221D183004FF00F0C8F
:100400000CFA03F7BC4305FA03FC4CEA040491F828
:1004100003C0BCF1280F05D100F1080C08FA0CF854
:10042000C2F8148091F803C0BCF1480F07D100F165
:10043000080C4FF0010808FA0CF8C2F81080401CB4
:100440000828CED35460BDE8F081000000BF074803
:10045000006800F4E06006490843001D0349086095
:10046000BFF34F8F00BF00BFFEE700000CED00E0C0
:100470000000FA0570B504460D46164604F00F005C
:1004800000F026FA0020164908701AE01448007897
:10049000295C13480078134A02F8101010480078BD
:1004A000114611F81000C0F1FF010D48007801223B
:1004B00002EB40000B4A115409480078401C0849DF
:1004C000087007480078B042E0DB0121880700F09F
:1004D000F5FC01221146900700F011FE70BD0000EE
:1004E0003A0000204A04002070B588B004460D464A
:1004F00000263848006849F26461B0FBF1F0401E04
:1005000086B20121042000F07FFA0121092000F0C9
:100510009BFA4FF47070ADF8100003208DF81200B4
:1005200018208DF8130004A92B48FFF703FF2B4870
:1005300000F0E0FC0020ADF81400ADF81600ADF8B6
:100540001860ADF81A008DF81C0005A9234800F0CA
:100550000DFF7020ADF800000120ADF80200002072
:10056000ADF808000220ADF80A00C001ADF80C009B
:10057000ADF80E00701E1A4908800846008890FBEE
:10058000F5F080B2ADF8060004F0010018B169463C
:10059000124800F0BDFD04F0020018B169460F4892
:1005A00000F002FE04F0040018B169460B4800F0A8
:1005B0004DFE04F0080018B16946084800F096FEA8
:1005C0000021064800F07AFC0021044800F082FC7B
:1005D00008B070BD14000020000C0140000800406D
:1005E0003600002010B50021054800F067FC00210E
:1005F000034800F06FFC0021014800F0B5FE10BD7B
:100600000008004010B504460121064800F056FCE1
:100610000121044800F05EFC2146024800F0A4FEDF
:1006200010BD0000000800403549097821B10129BA
:1006300017D0022961D115E032490988324A12885F
:10064000914208DD2F490988304A1288914202DA26
:1006500002212B4A117000212D4A11702D4A117070
:100660004BE04AE0274909882B4A128891420FDD66
:1006700024490988294A1288914209DA24490978CB
:10068000234A117023490978491C224A117019E044
:100690001C490988214A1288914210DD19490988AC
:1006A000194A128891420ADA19490978491C184AEC
:1006B000117018490978491C164A117002E000218E
:1006C0000F4A11700E490978B1B11249097801F049
:1006D000070131B10E4909784906090E0C4A11701B
:1006E0000AE00C490978C81009490A78411E0C4BE8
:1006F0005A540021064A117000BF00BF7047000025
:1007000034000020380000202C0000202A000020A7
:100710003B0000203A000020300000202E00002086
:100720005A04002070B53E48007830B101280FD03F
:10073000022822D0032870D120E000203949088007
:1007400001203749087038480088FFF75BFF64E0F4
:10075000344800880F2801DDFFF744FF3148008846
:10076000162809DD314800783149087003202C49EA
:10077000087000202B4908804FE04EE0294804888B
:10078000A41004F007042A480078A04000F080007C
:10079000284908700846007808BB2248007800F015
:1007A000020010B1FFF71EFF03E01F480088FFF7AB
:1007B00029FF1C480088401C1A490880072C2BD1AF
:1007C0000846007800F0020030B308460088C0F305
:1007D00047151649681C085C154908701CE011484B
:1007E000007800F0030010B1FFF7FCFE03E00E48B4
:1007F0000088FFF707FF072C0ED10A48007800F0A9
:100800000300032808D107480088C0F347150749AB
:10081000681C085C0649087000BF00BF70BD00007E
:100820003300002038000020360000204A04002059
:100830003B0000203C0000207FB505460C464FF0F1
:10084000804000F057FB0121084600F0DDF8ADF8CC
:100850000450ADF800400020ADF80600ADF80200ED
:1008600069464FF0804000F081FD0121880700F0CB
:100870001FFB4FF4E06000F081F81C208DF80C00A5
:1008800000208DF80D008DF80E0001208DF80F006E
:1008900003A800F03BF87FBD10B500214FF0804069
:1008A00000F00CFB00220121880700F028FCFFF774
:1008B00099FE3720044908700448006840F0200081
:1008C0000249086010BD000032000020140C0140F5
:1008D00010B5044602212046FFF706FE40F2CF2164
:1008E0003820FFF7A9FF11200349087000200349B1
:1008F00008800349087010BD320000203800002035
:1009000033000020704700BFFEE7704770B500213C
:1009100000230F22C47804B3154C246804F4E06467
:10092000C4F5E064210AC1F10403CA40447804FA22
:1009300003F184781440214309010E4C0678A15537
:10094000047804F01F050124AC4005786D11AD005A
:1009500005F1E025C5F8004109E0047804F01F0521
:100960000124AC40044D0678761145F8264070BD50
:100970000CED00E000E400E080E100E0024901430A
:10098000024A1160704700000000FA050CED00E01B
:100990007047000008B54820FFF7FAFB01211C2032
:1009A00000F052F84FF40040ADF8000003208DF83D
:1009B000020010208DF8030069461048FFF7BAFCCA
:1009C0004FF40050ADF8000003208DF80200102015
:1009D0008DF8030069460A48FFF7ACFC4FF48070BD
:1009E000ADF8000003208DF8020010208DF8030000
:1009F00069460448FFF79EFC08BD0000000801405E
:100A000000100140000C014029B1064AD26902439E
:100A1000044BDA6104E0034AD2698243014BDA6194
:100A2000704700000010024029B1064A12690243D3
:100A3000044B1A6104E0034A12698243014B1A61B4
:100A4000704700000010024029B1064A9269024333
:100A5000044B9A6104E0034A92698243014B9A6114
:100A6000704700000010024029B1064AD2680243D4
:100A7000044BDA6004E0034AD2688243014BDA6037
:100A800070470000001002400F48006840F001006D
:100A90000D490860084640680C4908400A4948600A
:100AA000084600680A490840074908600846006887
:100AB00020F4802008600846406820F4FE0048606A
:100AC0004FF41F0088607047001002400000FFF8DC
:100AD000FFFFF6FE30B500210022002400232D4D3B
:100AE0006D6805F00C0121B1042905D0082923D136
:100AF00005E0294D056022E0274D05601FE0254DEA
:100B00006D6805F47012234D6D6805F4803402257C
:100B100005EB92421CB9214D554305600BE01D4D7C
:100B20006D6805F400351DB11C4D5543056002E0AC
:100B3000194D5543056002E0174D056000BF00BF29
:100B4000144D6D6805F0F0010909154D6B5C0568E1
:100B5000DD4045600F4D6D6805F4E061090A104DF8
:100B60006B5C4568DD4085600A4D6D6805F4605139
:100B7000C90A0B4D6B5C4568DD40C560054D6D686D
:100B800005F44041890B074D6B5CC568B5FBF3F577
:100B9000056130BD0010024000127A0000093D00DE
:100BA000000000201000002010B5014600220023A4
:100BB00000204A11012A02D1094C236806E0022ACA
:100BC00002D1074C236A01E0054C636A01F01F0261
:100BD000012494401C400CB1012000E0002010BD15
:100BE000001002400248406800F00C00704700000E
:100BF0000010024001460020034A506820F0F00037
:100C00000843506070470000001002401149096815
:100C100021F480310F4A11601146096821F48021C6
:100C20001160B0F5803F03D0B0F5802F0ED106E003
:100C30000849096841F48031064A116007E0054916
:100C4000096841F4A021034A116000E000BF00BF21
:100C50007047000000100240014908607047000022
:100C60000000424201460020034A506820F4E06040
:100C70000843506070470000001002400146002009
:100C8000034A506820F4605040EAC1005060704749
:100C9000001002400149086670470000000042420F
:100CA00002460020044B586820F47C1042EA0103FD
:100CB0001843014B58607047001002400146002065
:100CC000034A506820F0030008435060704700005A
:100CD00000100240704710B500F002F810BD00008F
:100CE0000CB50020019000903348006840F480303B
:100CF0003149086000BF3048006800F400300090BF
:100D00000198401C0190009818B90198B0F5A06FA7
:100D1000F1D12948006800F4003010B101200090A2
:100D200001E0002000900098012843D1234800688A
:100D300040F01000214908600846006820F00300D8
:100D400008600846006840F0020008601A484068E1
:100D5000194948600846406848600846406840F4C1
:100D6000806048600846406820F47C10486008466F
:100D7000406840F4E81048600846006840F0807021
:100D8000086000BF0C48006800F000700028F9D02F
:100D90000948406820F00300074948600846406859
:100DA00040F00200486000BF0348406800F00C00BB
:100DB0000828F9D10CBD00000010024000200240BC
:100DC0000948007870B10948008828B107480088B0
:100DD000401E0649088005E000204FF0E021086130
:100DE00001490870704700004400002042000020C4
:100DF00010B51348006840F001001149086008462A
:100E00004068104908400E494860084600680E498D
:100E100008400B4908600846006820F480200860FC
:100E20000846406820F4FE0048604FF41F008860C8
:100E3000FFF751FF4FF000600449086010BD00004B
:100E4000001002400000FFF8FFFFF6FE08ED00E092
:100E500010B50121880700F041F910B3114800785E
:100E6000112815D10121800700F025F8FFF75AFC61
:100E70000D480088401C0C4908800C480078400050
:100E8000401E0988B0EB611F0BDAFFF705FD08E093
:100E90000121880700F00FF803480088401C024930
:100EA000088010BD32000020380000203A000020E9
:100EB000CA4302827047CA430282704721B1028846
:100EC00042F00102028004E002884FF6FE731A40ED
:100ED0000280704731B1B0F8442042F40042A0F8DB
:100EE000442005E0B0F84420C2F30E02A0F84420EC
:100EF0007047000010B504466848844208D10121BB
:100F0000C014FFF7B1FD0021E014FFF7ADFDC4E010
:100F1000B4F1804F08D101210846FFF785FD00217B
:100F20000120FFF781FDB8E05D48844208D101212E
:100F30000220FFF779FD00210220FFF775FDACE0EC
:100F40005848844208D101210420FFF76DFD00219B
:100F50000420FFF769FDA0E05348844208D1012135
:100F60000820FFF761FD00210820FFF75DFD94E0F8
:100F70004E48844208D101211020FFF755FD002181
:100F80001020FFF751FD88E04948844208D1012133
:100F90002020FFF749FD00212020FFF745FD7CE0E0
:100FA0004448844208D101214014FFF75DFD00212F
:100FB0006014FFF759FD70E03F48844209D10121D8
:100FC000C804FFF751FD00214FF40020FFF74CFD4E
:100FD00063E03A48844209D101210805FFF744FD46
:100FE00000214FF48010FFF73FFD56E03448844263
:100FF00009D101214805FFF737FD00214FF400100A
:10100000FFF732FD49E02F48844208D101214020FA
:10101000FFF70AFD00214020FFF706FD3DE02A48CA
:10102000844208D101218020FFF7FEFC00218020AE
:10103000FFF7FAFC31E02548844208D101218015F0
:10104000FFF7F2FC0021A015FFF7EEFC25E0204899
:10105000844209D101210804FFF706FD00214FF465
:101060008030FFF701FD18E01A48844209D10121C0
:101070004804FFF7F9FC00214FF40030FFF7F4FCBF
:101080000BE01548844208D101218804FFF7ECFCED
:1010900000214FF48020FFF7E7FC10BD002C014039
:1010A0000004004000080040000C00400010004018
:1010B0000014004000340140004C01400050014049
:1010C0000054014000180040001C00400020004077
:1010D00000400140004401400048014030B5024654
:1010E000002000230024158A05EA0103958905EAFA
:1010F000010413B10CB1012000E0002030BD1AB191
:1011000083890B43838102E083898B43838170470A
:1011100070B5002400220023058C4FF6FE76354082
:101120000584028C8388048B4FF68F752C40B51E86
:101130002C400D882C43751E2A400D892A434D886A
:101140002A43144DA8420BD0134DA84208D0134D8A
:10115000A84205D0124DA84202D0124DA84213D188
:101160004FF6F7752A404D892A434FF6FB752A4002
:101170008D882A434FF6FF652B404FF6FF552B40D5
:101180008D892B43CD892B4383800483CD8885862D
:10119000028470BD002C0140003401400040014039
:1011A000004401400048014070B5002400220023A3
:1011B000058C4FF6EF7635400584028C8388048BCE
:1011C00048F6FF752C404FF6FF452C400D884FF632
:1011D000FF7606EA05252C434FF6DF752A400D8978
:1011E00006EA05152A434D8806EA05152A43154DDA
:1011F000A84202D0144DA8421DD14FF67F752A4057
:101200004D894FF6FF7606EA05152A434FF6BF755E
:101210002A408D8806EA05152A434FF6FF352B40F4
:101220004FF2FF752B408D8906EA85052B43CD894A
:1012300006EA85052B4383800483CD8805870284D5
:1012400070BD0000002C01400034014070B5002446
:1012500000220023058C4FF6FF6635400584028C82
:101260008388848B4FF68F752C404FF6FC752C408D
:101270000D882C434FF6FF552A400D894FF6FF7617
:1012800006EA05252A434D8806EA05252A43154D19
:10129000A84202D0144DA8421DD14FF2FF752A403A
:1012A0004D894FF6FF7606EA05252A434FF6FF35AE
:1012B0002A408D8806EA05252A434EF6FF752B4005
:1012C0004DF6FF752B408D8906EA05152B43CD8918
:1012D00006EA05152B4383808483CD8885870284A5
:1012E00070BD0000002C01400034014070B50022A8
:1012F00000230024058C4EF6FF7635400584038CD0
:101300008488828B48F6FF752A404FF6FF452A40B5
:101310000D884FF6FF7606EA05252A434DF6FF7540
:101320002B400D8906EA05352B434D8806EA053525
:101330002B430B4DA84202D00A4DA84208D14BF6D0
:10134000FF752C408D894FF6FF7606EA85152C43F4
:1013500084808283CD88A0F84050038470BD000053
:10136000002C014000340140818670470022028831
:101370001D4B98420ED01D4B98420BD0B0F1804FC0
:1013800008D01B4B984205D01A4B984202D01A4BFA
:10139000984204D14FF68F731A404B881A43174B6B
:1013A000984207D0164B984204D04FF6FF431A409C
:1013B000CB881A4302808B8883850B8803850A4B70
:1013C00098420BD0094B984208D00E4B984205D05A
:1013D0000D4B984202D00D4B984201D10B7A0386F7
:1013E0000123838270470000002C0140003401403B
:1013F0000004004000080040000C004000100040C5
:1014000000140040004001400044014000480140F9
:1014100000B585B0012144F20400FFF715FB4FF43D
:101420000070ADF8100018208DF8130003208DF81F
:10143000120004A91648FEF77DFF4FF48060ADF856
:10144000100004208DF8130004A91148FEF772FF64
:101450004FF4E13000900020ADF80400ADF8060034
:10146000ADF80800ADF80C000C20ADF80A00694694
:10147000084800F08DF8012240F22551054800F09F
:1014800061F80121034800F027F805B000BD000015
:10149000000801400038014010B540F225510C48C9
:1014A00000F026F898B10A4800F0DEF8C4B2094806
:1014B000008840F2FF3190FBF1F201FB1201054878
:1014C000801C4454801E0088401C0249088010BDC6
:1014D000003801404800002021B1828942F40052C6
:1014E000828104E082894DF6FF731A408281704741
:1014F00070B50246002400230025002040F66A163D
:10150000B14200D100BFC1F3421501F01F03012613
:1015100006FA03F3012D02D19689334006E0022D2D
:1015200002D1168A334001E0968A33400C1201261C
:1015300006FA04F41688344013B10CB1012000E01F
:10154000002070BDF0B503460024002600250020D1
:1015500040F66A17B94200D100BF1846C1F34214E1
:1015600001F01F06012707FA06F5012C01D10C3006
:1015700004E0022C01D1103000E014301AB10768E9
:101580002F43076002E00768AF430760F0BD00002B
:101590002DE9F04786B005460E460024A24600BF5E
:1015A000A1460027B08900B100BF2F462C8A4CF617
:1015B000FF700440F08804432C82AC894EF6F3108F
:1015C0000440B08831890843718908430443AC81E1
:1015D000AC8A4FF6FF400440B0890443AC8201A8B6
:1015E000FFF778FA1F48874202D1DDF810A001E02A
:1015F000DDF80CA0A88900F4004040B10AEBCA0055
:1016000000EB0A1031684900B0FBF1F807E00AEB83
:10161000CA0000EB0A1031688900B0FBF1F86420C1
:10162000B8FBF0F004012009642101FB1089A889AE
:1016300000F4004040B1322000EBC900B0FBF1F0F3
:1016400000F00700044308E0322000EB0910642199
:10165000B0FBF1F000F00F0004432C8106B0BDE8B0
:10166000F08700000038014001468888C0F3080078
:10167000704700BFFEE702E008C8121F08C1002A39
:10168000FAD170477047002001E001C1121F002A03
:10169000FBD17047FFF77EF9FFF734F9FFF7B8FE8B
:1016A000002403E0601C07490855C4B23C2CF9DB58
:1016B00007E03C2203494420FEF7DCFE6420FEF7ED
:1016C000E7FDF6E76A040020E816000800000020A5
:1016D0004800000076160008301700084800002077
:1016E000D80800008616000800000000010203046C
:1016F00001020304060708090204060800A24A04BE
:1017000000000000000000000102030406070809B1
:101710001027D0072003B4003C00000000000000A8
:1017200000000000000000000000000000000000B9
:0400000508000131BD
:00000001FF
